{
  "_format": "hh-sol-artifact-1",
  "contractName": "Lottery",
  "sourceName": "contracts/Lottery.sol",
  "abi": [
    {
      "inputs": [
        {
          "internalType": "address",
          "name": "_priceFeedContractAddress",
          "type": "address"
        },
        {
          "internalType": "address",
          "name": "_vrfCoordinator",
          "type": "address"
        },
        {
          "internalType": "address",
          "name": "_link",
          "type": "address"
        },
        {
          "internalType": "uint256",
          "name": "_fee",
          "type": "uint256"
        },
        {
          "internalType": "bytes32",
          "name": "_keyHash",
          "type": "bytes32"
        }
      ],
      "stateMutability": "nonpayable",
      "type": "constructor"
    },
    {
      "anonymous": false,
      "inputs": [
        {
          "indexed": true,
          "internalType": "address",
          "name": "previousOwner",
          "type": "address"
        },
        {
          "indexed": true,
          "internalType": "address",
          "name": "newOwner",
          "type": "address"
        }
      ],
      "name": "OwnershipTransferred",
      "type": "event"
    },
    {
      "anonymous": false,
      "inputs": [
        {
          "indexed": false,
          "internalType": "bytes32",
          "name": "requestId",
          "type": "bytes32"
        }
      ],
      "name": "RequestRandomNess",
      "type": "event"
    },
    {
      "inputs": [],
      "name": "endLottery",
      "outputs": [],
      "stateMutability": "nonpayable",
      "type": "function"
    },
    {
      "inputs": [],
      "name": "enter",
      "outputs": [],
      "stateMutability": "payable",
      "type": "function"
    },
    {
      "inputs": [],
      "name": "fee",
      "outputs": [
        {
          "internalType": "uint256",
          "name": "",
          "type": "uint256"
        }
      ],
      "stateMutability": "view",
      "type": "function"
    },
    {
      "inputs": [],
      "name": "getEntranceFee",
      "outputs": [
        {
          "internalType": "uint256",
          "name": "",
          "type": "uint256"
        }
      ],
      "stateMutability": "view",
      "type": "function"
    },
    {
      "inputs": [],
      "name": "getPrice",
      "outputs": [
        {
          "internalType": "uint256",
          "name": "",
          "type": "uint256"
        }
      ],
      "stateMutability": "view",
      "type": "function"
    },
    {
      "inputs": [],
      "name": "keyHash",
      "outputs": [
        {
          "internalType": "bytes32",
          "name": "",
          "type": "bytes32"
        }
      ],
      "stateMutability": "view",
      "type": "function"
    },
    {
      "inputs": [],
      "name": "lottery_state",
      "outputs": [
        {
          "internalType": "enum Lottery.LOTTERY_STATE",
          "name": "",
          "type": "uint8"
        }
      ],
      "stateMutability": "view",
      "type": "function"
    },
    {
      "inputs": [],
      "name": "owner",
      "outputs": [
        {
          "internalType": "address",
          "name": "",
          "type": "address"
        }
      ],
      "stateMutability": "view",
      "type": "function"
    },
    {
      "inputs": [
        {
          "internalType": "uint256",
          "name": "",
          "type": "uint256"
        }
      ],
      "name": "players",
      "outputs": [
        {
          "internalType": "address payable",
          "name": "",
          "type": "address"
        }
      ],
      "stateMutability": "view",
      "type": "function"
    },
    {
      "inputs": [],
      "name": "randomResult",
      "outputs": [
        {
          "internalType": "uint256",
          "name": "",
          "type": "uint256"
        }
      ],
      "stateMutability": "view",
      "type": "function"
    },
    {
      "inputs": [
        {
          "internalType": "bytes32",
          "name": "requestId",
          "type": "bytes32"
        },
        {
          "internalType": "uint256",
          "name": "randomness",
          "type": "uint256"
        }
      ],
      "name": "rawFulfillRandomness",
      "outputs": [],
      "stateMutability": "nonpayable",
      "type": "function"
    },
    {
      "inputs": [],
      "name": "recentWinner",
      "outputs": [
        {
          "internalType": "address payable",
          "name": "",
          "type": "address"
        }
      ],
      "stateMutability": "view",
      "type": "function"
    },
    {
      "inputs": [],
      "name": "renounceOwnership",
      "outputs": [],
      "stateMutability": "nonpayable",
      "type": "function"
    },
    {
      "inputs": [
        {
          "internalType": "uint256",
          "name": "_minUSDValue",
          "type": "uint256"
        }
      ],
      "name": "setMinUSD",
      "outputs": [],
      "stateMutability": "nonpayable",
      "type": "function"
    },
    {
      "inputs": [],
      "name": "startLottery",
      "outputs": [],
      "stateMutability": "nonpayable",
      "type": "function"
    },
    {
      "inputs": [
        {
          "internalType": "address",
          "name": "newOwner",
          "type": "address"
        }
      ],
      "name": "transferOwnership",
      "outputs": [],
      "stateMutability": "nonpayable",
      "type": "function"
    },
    {
      "inputs": [],
      "name": "usdEntryFee",
      "outputs": [
        {
          "internalType": "uint256",
          "name": "",
          "type": "uint256"
        }
      ],
      "stateMutability": "view",
      "type": "function"
    }
  ],
  "bytecode": "0x60c06040523480156200001157600080fd5b5060405162001f6e38038062001f6e833981810160405281019062000037919062000298565b83838173ffffffffffffffffffffffffffffffffffffffff1660a08173ffffffffffffffffffffffffffffffffffffffff1660601b815250508073ffffffffffffffffffffffffffffffffffffffff1660808173ffffffffffffffffffffffffffffffffffffffff1660601b815250505050620000c9620000bd6200018560201b60201c565b6200018d60201b60201c565b6802b5e3af16b188000060038190555084600860006101000a81548173ffffffffffffffffffffffffffffffffffffffff021916908373ffffffffffffffffffffffffffffffffffffffff1602179055506001600860146101000a81548160ff0219169083600281111562000167577f4e487b7100000000000000000000000000000000000000000000000000000000600052602160045260246000fd5b021790555081600481905550806005819055505050505050620003b0565b600033905090565b6000600160009054906101000a900473ffffffffffffffffffffffffffffffffffffffff16905081600160006101000a81548173ffffffffffffffffffffffffffffffffffffffff021916908373ffffffffffffffffffffffffffffffffffffffff1602179055508173ffffffffffffffffffffffffffffffffffffffff168173ffffffffffffffffffffffffffffffffffffffff167f8be0079c531659141344cd1fd0a4f28419497f9722a3daafe3b4186f6b6457e060405160405180910390a35050565b600081519050620002648162000362565b92915050565b6000815190506200027b816200037c565b92915050565b600081519050620002928162000396565b92915050565b600080600080600060a08688031215620002b157600080fd5b6000620002c18882890162000253565b9550506020620002d48882890162000253565b9450506040620002e78882890162000253565b9350506060620002fa8882890162000281565b92505060806200030d888289016200026a565b9150509295509295909350565b6000620003278262000338565b9050919050565b6000819050919050565b600073ffffffffffffffffffffffffffffffffffffffff82169050919050565b6000819050919050565b6200036d816200031a565b81146200037957600080fd5b50565b62000387816200032e565b81146200039357600080fd5b50565b620003a18162000358565b8114620003ad57600080fd5b50565b60805160601c60a05160601c611b8b620003e3600039600081816106430152610a8501526000610a490152611b8b6000f3fe6080604052600436106100fe5760003560e01c8063814479991161009557806398d5fdca1161006457806398d5fdca146102c7578063ddca3f43146102f2578063e97dcb621461031d578063f2fde38b14610327578063f71d96cb14610350576100fe565b8063814479991461021d57806388ab139a146102485780638da5cb5b1461027357806394985ddd1461029e576100fe565b806342619f66116100d157806342619f66146101855780634f8c70cf146101b057806361728f39146101db578063715018a614610206576100fe565b806309bc33a7146101035780631593a8c71461012e578063160344e21461014557806330c0684f1461015c575b600080fd5b34801561010f57600080fd5b5061011861038d565b6040516101259190611661565b60405180910390f35b34801561013a57600080fd5b506101436103d1565b005b34801561015157600080fd5b5061015a610476565b005b34801561016857600080fd5b50610183600480360381019061017e91906111b3565b610593565b005b34801561019157600080fd5b5061019a6105b8565b6040516101a79190611661565b60405180910390f35b3480156101bc57600080fd5b506101c56105be565b6040516101d29190611464565b60405180910390f35b3480156101e757600080fd5b506101f06105e4565b6040516101fd91906114bd565b60405180910390f35b34801561021257600080fd5b5061021b6105ea565b005b34801561022957600080fd5b506102326105fe565b60405161023f9190611546565b60405180910390f35b34801561025457600080fd5b5061025d610611565b60405161026a9190611661565b60405180910390f35b34801561027f57600080fd5b50610288610617565b6040516102959190611449565b60405180910390f35b3480156102aa57600080fd5b506102c560048036038101906102c09190611177565b610641565b005b3480156102d357600080fd5b506102dc6106dd565b6040516102e99190611661565b60405180910390f35b3480156102fe57600080fd5b5061030761078d565b6040516103149190611661565b60405180910390f35b610325610793565b005b34801561033357600080fd5b5061034e60048036038101906103499190611125565b610904565b005b34801561035c57600080fd5b50610377600480360381019061037291906111b3565b610988565b6040516103849190611464565b60405180910390f35b6000806402540be40061039e6106dd565b6103a89190611730565b670de0b6b3a76400006003546103be9190611730565b6103c891906116ff565b90508091505090565b6103d96109c7565b6002600860146101000a81548160ff02191690836002811115610425577f4e487b7100000000000000000000000000000000000000000000000000000000600052602160045260246000fd5b0217905550600061043a600554600454610a45565b90507f9ac52394dfb6ff4f6ef7de4661889013408515c67bb5f5a5162a9893d171e48d8160405161046b91906114bd565b60405180910390a150565b61047e6109c7565b600160028111156104b8577f4e487b7100000000000000000000000000000000000000000000000000000000600052602160045260246000fd5b600860149054906101000a900460ff166002811115610500577f4e487b7100000000000000000000000000000000000000000000000000000000600052602160045260246000fd5b14610540576040517f08c379a000000000000000000000000000000000000000000000000000000000815260040161053790611641565b60405180910390fd5b6000600860146101000a81548160ff0219169083600281111561058c577f4e487b7100000000000000000000000000000000000000000000000000000000600052602160045260246000fd5b0217905550565b61059b6109c7565b670de0b6b3a7640000816105af9190611730565b60038190555050565b60075481565b600660009054906101000a900473ffffffffffffffffffffffffffffffffffffffff1681565b60055481565b6105f26109c7565b6105fc6000610ba4565b565b600860149054906101000a900460ff1681565b60035481565b6000600160009054906101000a900473ffffffffffffffffffffffffffffffffffffffff16905090565b7f000000000000000000000000000000000000000000000000000000000000000073ffffffffffffffffffffffffffffffffffffffff163373ffffffffffffffffffffffffffffffffffffffff16146106cf576040517f08c379a00000000000000000000000000000000000000000000000000000000081526004016106c690611601565b60405180910390fd5b6106d98282610c6a565b5050565b600080600860009054906101000a900473ffffffffffffffffffffffffffffffffffffffff1673ffffffffffffffffffffffffffffffffffffffff1663feaf968c6040518163ffffffff1660e01b815260040160a06040518083038186803b15801561074857600080fd5b505afa15801561075c573d6000803e3d6000fd5b505050506040513d601f19601f8201168201806040525081019061078091906111dc565b5050509150508091505090565b60045481565b600060028111156107cd577f4e487b7100000000000000000000000000000000000000000000000000000000600052602160045260246000fd5b600860149054906101000a900460ff166002811115610815577f4e487b7100000000000000000000000000000000000000000000000000000000600052602160045260246000fd5b14610855576040517f08c379a000000000000000000000000000000000000000000000000000000000815260040161084c906115e1565b60405180910390fd5b61085d61038d565b34101561089f576040517f08c379a0000000000000000000000000000000000000000000000000000000008152600401610896906115a1565b60405180910390fd5b6002339080600181540180825580915050600190039060005260206000200160009091909190916101000a81548173ffffffffffffffffffffffffffffffffffffffff021916908373ffffffffffffffffffffffffffffffffffffffff160217905550565b61090c6109c7565b600073ffffffffffffffffffffffffffffffffffffffff168173ffffffffffffffffffffffffffffffffffffffff16141561097c576040517f08c379a000000000000000000000000000000000000000000000000000000000815260040161097390611561565b60405180910390fd5b61098581610ba4565b50565b6002818154811061099857600080fd5b906000526020600020016000915054906101000a900473ffffffffffffffffffffffffffffffffffffffff1681565b6109cf610f74565b73ffffffffffffffffffffffffffffffffffffffff166109ed610617565b73ffffffffffffffffffffffffffffffffffffffff1614610a43576040517f08c379a0000000000000000000000000000000000000000000000000000000008152600401610a3a906115c1565b60405180910390fd5b565b60007f000000000000000000000000000000000000000000000000000000000000000073ffffffffffffffffffffffffffffffffffffffff16634000aea07f000000000000000000000000000000000000000000000000000000000000000084866000604051602001610ab99291906114d8565b6040516020818303038152906040526040518463ffffffff1660e01b8152600401610ae69392919061147f565b602060405180830381600087803b158015610b0057600080fd5b505af1158015610b14573d6000803e3d6000fd5b505050506040513d601f19601f82011682018060405250810190610b38919061114e565b506000610b5a8460003060008089815260200190815260200160002054610f7c565b9050600160008086815260200190815260200160002054610b7b91906116a9565b60008086815260200190815260200160002081905550610b9b8482610fb8565b91505092915050565b6000600160009054906101000a900473ffffffffffffffffffffffffffffffffffffffff16905081600160006101000a81548173ffffffffffffffffffffffffffffffffffffffff021916908373ffffffffffffffffffffffffffffffffffffffff1602179055508173ffffffffffffffffffffffffffffffffffffffff168173ffffffffffffffffffffffffffffffffffffffff167f8be0079c531659141344cd1fd0a4f28419497f9722a3daafe3b4186f6b6457e060405160405180910390a35050565b600280811115610ca3577f4e487b7100000000000000000000000000000000000000000000000000000000600052602160045260246000fd5b600860149054906101000a900460ff166002811115610ceb577f4e487b7100000000000000000000000000000000000000000000000000000000600052602160045260246000fd5b14610d2b576040517f08c379a0000000000000000000000000000000000000000000000000000000008152600401610d2290611581565b60405180910390fd5b60008111610d6e576040517f08c379a0000000000000000000000000000000000000000000000000000000008152600401610d6590611621565b60405180910390fd5b600060028054905082610d81919061187a565b905060028181548110610dbd577f4e487b7100000000000000000000000000000000000000000000000000000000600052603260045260246000fd5b9060005260206000200160009054906101000a900473ffffffffffffffffffffffffffffffffffffffff16600660006101000a81548173ffffffffffffffffffffffffffffffffffffffff021916908373ffffffffffffffffffffffffffffffffffffffff160217905550600660009054906101000a900473ffffffffffffffffffffffffffffffffffffffff1673ffffffffffffffffffffffffffffffffffffffff166108fc479081150290604051600060405180830381858888f19350505050158015610e90573d6000803e3d6000fd5b50600067ffffffffffffffff811115610ed2577f4e487b7100000000000000000000000000000000000000000000000000000000600052604160045260246000fd5b604051908082528060200260200182016040528015610f005781602001602082028036833780820191505090505b5060029080519060200190610f16929190610feb565b506001600860146101000a81548160ff02191690836002811115610f63577f4e487b7100000000000000000000000000000000000000000000000000000000600052602160045260246000fd5b021790555081600781905550505050565b600033905090565b600084848484604051602001610f959493929190611501565b6040516020818303038152906040528051906020012060001c9050949350505050565b60008282604051602001610fcd92919061141d565b60405160208183030381529060405280519060200120905092915050565b828054828255906000526020600020908101928215611064579160200282015b828111156110635782518260006101000a81548173ffffffffffffffffffffffffffffffffffffffff021916908373ffffffffffffffffffffffffffffffffffffffff1602179055509160200191906001019061100b565b5b5090506110719190611075565b5090565b5b8082111561108e576000816000905550600101611076565b5090565b6000813590506110a181611acb565b92915050565b6000815190506110b681611ae2565b92915050565b6000813590506110cb81611af9565b92915050565b6000815190506110e081611b10565b92915050565b6000813590506110f581611b27565b92915050565b60008151905061110a81611b27565b92915050565b60008151905061111f81611b3e565b92915050565b60006020828403121561113757600080fd5b600061114584828501611092565b91505092915050565b60006020828403121561116057600080fd5b600061116e848285016110a7565b91505092915050565b6000806040838503121561118a57600080fd5b6000611198858286016110bc565b92505060206111a9858286016110e6565b9150509250929050565b6000602082840312156111c557600080fd5b60006111d3848285016110e6565b91505092915050565b600080600080600060a086880312156111f457600080fd5b600061120288828901611110565b9550506020611213888289016110d1565b9450506040611224888289016110fb565b9350506060611235888289016110fb565b925050608061124688828901611110565b9150509295509295909350565b61125c8161179c565b82525050565b61126b8161178a565b82525050565b61127a816117ba565b82525050565b61129161128c826117ba565b611866565b82525050565b60006112a28261167c565b6112ac8185611687565b93506112bc818560208601611833565b6112c581611938565b840191505092915050565b6112d981611821565b82525050565b60006112ec602683611698565b91506112f782611949565b604082019050919050565b600061130f601683611698565b915061131a82611998565b602082019050919050565b6000611332600e83611698565b915061133d826119c1565b602082019050919050565b6000611355602083611698565b9150611360826119ea565b602082019050919050565b6000611378601383611698565b915061138382611a13565b602082019050919050565b600061139b601f83611698565b91506113a682611a3c565b602082019050919050565b60006113be601083611698565b91506113c982611a65565b602082019050919050565b60006113e1601e83611698565b91506113ec82611a8e565b602082019050919050565b61140081611801565b82525050565b61141761141282611801565b611870565b82525050565b60006114298285611280565b6020820191506114398284611406565b6020820191508190509392505050565b600060208201905061145e6000830184611262565b92915050565b60006020820190506114796000830184611253565b92915050565b60006060820190506114946000830186611262565b6114a160208301856113f7565b81810360408301526114b38184611297565b9050949350505050565b60006020820190506114d26000830184611271565b92915050565b60006040820190506114ed6000830185611271565b6114fa60208301846113f7565b9392505050565b60006080820190506115166000830187611271565b61152360208301866113f7565b6115306040830185611262565b61153d60608301846113f7565b95945050505050565b600060208201905061155b60008301846112d0565b92915050565b6000602082019050818103600083015261157a816112df565b9050919050565b6000602082019050818103600083015261159a81611302565b9050919050565b600060208201905081810360008301526115ba81611325565b9050919050565b600060208201905081810360008301526115da81611348565b9050919050565b600060208201905081810360008301526115fa8161136b565b9050919050565b6000602082019050818103600083015261161a8161138e565b9050919050565b6000602082019050818103600083015261163a816113b1565b9050919050565b6000602082019050818103600083015261165a816113d4565b9050919050565b600060208201905061167660008301846113f7565b92915050565b600081519050919050565b600082825260208201905092915050565b600082825260208201905092915050565b60006116b482611801565b91506116bf83611801565b9250827fffffffffffffffffffffffffffffffffffffffffffffffffffffffffffffffff038211156116f4576116f36118ab565b5b828201905092915050565b600061170a82611801565b915061171583611801565b925082611725576117246118da565b5b828204905092915050565b600061173b82611801565b915061174683611801565b9250817fffffffffffffffffffffffffffffffffffffffffffffffffffffffffffffffff048311821515161561177f5761177e6118ab565b5b828202905092915050565b6000611795826117e1565b9050919050565b60006117a7826117e1565b9050919050565b60008115159050919050565b6000819050919050565b60008190506117d282611ab7565b919050565b6000819050919050565b600073ffffffffffffffffffffffffffffffffffffffff82169050919050565b6000819050919050565b600069ffffffffffffffffffff82169050919050565b600061182c826117c4565b9050919050565b60005b83811015611851578082015181840152602081019050611836565b83811115611860576000848401525b50505050565b6000819050919050565b6000819050919050565b600061188582611801565b915061189083611801565b9250826118a05761189f6118da565b5b828206905092915050565b7f4e487b7100000000000000000000000000000000000000000000000000000000600052601160045260246000fd5b7f4e487b7100000000000000000000000000000000000000000000000000000000600052601260045260246000fd5b7f4e487b7100000000000000000000000000000000000000000000000000000000600052602160045260246000fd5b6000601f19601f8301169050919050565b7f4f776e61626c653a206e6577206f776e657220697320746865207a65726f206160008201527f6464726573730000000000000000000000000000000000000000000000000000602082015250565b7f5374696c6c207069636b696e6720612077696e6e657200000000000000000000600082015250565b7f4e6f7420656e6f75676820455448000000000000000000000000000000000000600082015250565b7f4f776e61626c653a2063616c6c6572206973206e6f7420746865206f776e6572600082015250565b7f4c6f7474657279206973206e6f74206f70656e00000000000000000000000000600082015250565b7f4f6e6c7920565246436f6f7264696e61746f722063616e2066756c66696c6c00600082015250565b7f72616e646f6d2d6e6f742d666f756e6400000000000000000000000000000000600082015250565b7f43616e27742073746172742061206e6577206c6f747465727920796574210000600082015250565b60038110611ac857611ac7611909565b5b50565b611ad48161178a565b8114611adf57600080fd5b50565b611aeb816117ae565b8114611af657600080fd5b50565b611b02816117ba565b8114611b0d57600080fd5b50565b611b19816117d7565b8114611b2457600080fd5b50565b611b3081611801565b8114611b3b57600080fd5b50565b611b478161180b565b8114611b5257600080fd5b5056fea264697066735822122025929ae4eb0dc2cbb7d9bb4c4f2845d44424bd6c5657a912a6caaaa02bbba2b764736f6c63430008030033",
  "linkReferences": {},
  "deployedLinkReferences": {}
}